:020000040000FA
:060000004DEF07F01200B5
:020006001200E6
:0800080007EF00F01200D8CF51
:10001000E4FFE0CFE4FFE46EDACFE4FFE2CFDAFF03
:10002000E9CFE4FFEACFE4FFF6CFE4FFF7CFE4FF48
:10003000F5CFE4FFF3CFE4FFF4CFE4FFFACFE4FF22
:1000400000EE00F00B0EE80403E3EECFE4FFFBD775
:1000500000EE0BF0080EE80403E3EECFE4FFFBD75D
:10006000E652FECFE9F1FDCFEAF1E2CFE7F1E1CFD1
:10007000E8F100C1E9FF01C1EAFF020EE926000E26
:10008000EA22EF6A00C1E9FF01C1EAFFEE6AED6A08
:10009000E9C115F015C016F0156A0101EA51000119
:1000A0001510136E16C014F000C1E9FF01C1EAFF7C
:1000B000040E13C0EBFF050E14C0EBFFE7C115F0F3
:1000C00015C016F0156A0101E85100011510136EF4
:1000D00016C014F000C1E9FF01C1EAFF060E13C00B
:1000E000EBFF070E14C0EBFFC00EE66E010EE66ECE
:1000F00071EC01F0E552E552F3CFEBF1F4CFECF106
:10010000400EE66E020EE66E00C1E6FF01C1E6FF9C
:10011000C00EE66E010EE66EC0EC01F0136E060E28
:10012000E15E1350EBC100F1ECC101F100C1E9FF48
:1001300001C1EAFF040EE926000EEA22EECF13F019
:10014000EFCF14F013500101EA6F00C1E9FF01C1C4
:10015000EAFF040EE926000EEA22EECF13F0EFCFFD
:1001600014F014C013F0146A13C0E9F100C1E9FFE0
:1001700001C1EAFF060EE926000EEA22EECF13F0D7
:10018000EFCF14F013500101E86F00C1E9FF01C186
:10019000EAFF060EE926000EEA22EECF13F0EFCFBB
:1001A00014F014C013F0146A13C0E7F1E9C1E8FFBA
:1001B000FE6EEAC1E8FFFD6E0101DF2B000EE023B9
:1001C000E123E2232ED8E55200EE12F0080EE804F7
:1001D00003E3E5CFEDFFFBD700EE0AF00B0EE804DA
:1001E00003E3E5CFEDFFFBD7E5CFFAFFE5CFF4FF63
:1001F000E5CFF3FFE5CFF5FFE5CFF7FFE5CFF6FF5E
:10020000E5CFEAFFE5CFE9FFE5CFDAFFE550E5CF3F
:10021000E0FFE5CFD8FF1000F250040B01E0010E23
:060220001200F29412002E
:0A0226000200C70E0000DF01000017
:1002300008000000B60E0000C4010000110000001C
:10024000D9CFE6FFE1CFD9FFE150FD0FE96EFF0EF8
:10025000DA20EA6EEE50ED102BE0D950FB0FE96E7C
:10026000FF0EDA20EA6EEE50ED1022E0FD0EDBCF3D
:10027000E9FFFE0EDBCFEAFF020EE926000EEA22BE
:10028000EFCF0BF0FB0EDBCFE9FFFC0EDBCFEAFF7D
:10029000020EE926000EEA22EF50E76E0B18E8AED8
:1002A00002D0E73402D0E7500B5C14E3F36A14D0B9
:1002B000D950FD0FE96EFF0EDA20EA6EEE50ED1018
:1002C0000CE1D950FB0FE96EFF0EDA20EA6EEE501A
:1002D000ED1003E0010EF36EF46AE552E7CFD9FFAB
:1002E0001200D9CFE6FFE1CFD9FF020EE126FD0EC5
:1002F000DBCFE9FFFE0EDBCFEAFFEECFDEFFEDCF77
:10030000DDFFFD0EDBCFE9FFFE0EDBCFEAFFEE5097
:10031000EFCFEAFFE96EEECF0BF0EFCF0CF0FD0E62
:10032000DBCFE9FFFE0EDBCFEAFF0BC0EEFF0CC018
:10033000EDFFFD0EDBCFE9FFFE0EDBCFEAFFEE5057
:10034000ED100CE1FD0EDBCFE9FFFE0EDBCFEAFF87
:10035000020EE926000EEA22EE6AED6ADECF0BF00D
:10036000DDCF0CF00BC0F3FF0CC0F4FF020EE15C1C
:1003700002E2E16AE552E16EE552E7CFD9FF1200F1
:10038000D9CFE6FFE1CFD9FF040EE126FD0EDBCF8A
:10039000E9FFFE0EDBCFEAFFEECFDEFFEDCFDDFFA4
:1003A000FD0EDBCFE9FFFE0EDBCFEAFF020EEECF44
:1003B000DBFF030EEDCFDBFFFD0EDBCFE9FFFE0E13
:1003C000DBCFEAFFEE50ED1007E1FD0EDBCFE9FFDA
:1003D000FE0EDBCFEAFF2DD0F90EDBCF0DF0FA0ECB
:1003E000DBCF0EF0FB0EDBCFE6FFFC0EDBCFE6FF34
:1003F000DECFE6FFDDCFE6FF04D00EC0FAFF0D50E2
:10040000F96EFBDFE552E552E552E552F3CF0BF012
:10041000F4CF0CF0F350F41001E099D0DECFE9FFF7
:10042000DDCFEAFFEE50ED1015E1DECFE9FFDDCFC5
:10043000EAFFFB0EDBCFEEFFFC0EDBCFEDFFFD0E88
:10044000DBCFE9FFFE0EDBCFEAFF020EE926000E4E
:10045000EA2263D0F90EDBCF0DF0FA0EDBCF0EF0FF
:10046000FB0EDBCFE6FFFC0EDBCFE6FFDECFE6FFC9
:10047000DDCFE6FF04D00EC0FAFF0D50F96EFBDFB2
:10048000E552E552E552E552F3CF0BF0F4CF0CF014
:10049000F350F41001E078D0F90EDBCF0DF0FA0E36
:1004A000DBCF0EF0FB0EDBCFE6FFFC0EDBCFE6FF73
:1004B000DECFE9FFDDCFEAFFEECFE6FFEFCFE6FFCD
:1004C00004D00EC0FAFF0D50F96EFBDFE552E55285
:1004D000E552E552F3CF0BF0F4CF0CF0010EF31818
:1004E00023E10C5021E1020EDBCFE9FF030EDBCF4D
:1004F000EAFFEECF0BF0EFCF0CF0FB0EDBCFE9FF06
:10050000FC0EDBCFEAFF0BC0EEFF0CC0EDFF020ECE
:10051000DBCFE9FF030EDBCFEAFFFB0EDBCFEEFF05
:10052000FC0EDBCFEDFF30D0D9CFE9FFDACFEAFF09
:10053000020EEECFDBFF030EEDCFDBFFDECFE9FFD8
:10054000DDCFEAFFEECFDEFFEDCFDDFF83D7DECFDD
:10055000E9FFDDCFEAFFEE50ED100CE1FD0EDBCF41
:10056000E9FFFE0EDBCFEAFFFB0EDBCFEEFFFC0E5A
:10057000DBCFEDFFFB0EDBCFE9FFFC0EDBCFEAFFAD
:10058000DECFEEFFDDCFEDFF040EE15C02E2E16ABB
:0C059000E552E16EE552E7CFD9FF120002
:04059C00D9CFE6FFCE
:1005A000E1CFD9FFFB0EDBCF0BF0FC0EDBCF0CF065
:1005B0000A0E0C02F3CF0CF00B02F4500C26FD0EC9
:1005C000DB50F324E96EFE0EDB500C20EA6EEE6A7F
:1005D000ED6AFB0EDBCF0BF0FC0EDBCF0CF00A0E4E
:1005E0000C02F3CF0CF00B02F3CF0BF0F4500C26FF
:1005F000FD0EDB50F324E96EFE0EDB500C20EA6E9C
:10060000020EE926000EEA22EF6AFB0EDBCF0BF0AA
:10061000FC0EDBCF0CF00A0E0C02F3CF0CF00B0239
:10062000F3CF0BF0F4500C26FD0EDB50F324E96EF3
:10063000FE0EDB500C20EA6E040EE926000EEA22C4
:10064000F90EDBCFEEFFFA0EDBCFEDFFFB0EDBCFBB
:100650000BF0FC0EDBCF0CF00A0E0C02F3CF0CF00B
:100660000B02F3CF0BF0F4500C26FD0EDB50F324FD
:10067000E96EFE0EDB500C20EA6E030EE926000E3A
:10068000EA22FB0EDBCFEFFF400EE66E020EE66EB7
:10069000FB0EDBCF0BF0FC0EDBCF0CF00A0E0C02D6
:1006A000F3CF0CF00B02F3CF0BF0F4500C26020E3C
:1006B0000B26010E0C220BC0E6FF0CC0E6FFC00E9D
:1006C000E66E010EE66EC0EC01F00D6E060EE15E08
:1006D0000D50E552E7CFD9FF12000101C06BC16B8D
:1006E000C26BC36B020E006F010E016F00C1E9FF08
:1006F000EA6E340EE66E070EE66E010EE66EE66AF0
:10070000020EE66E010EE66E49DF0B6E060EE15E2E
:100710000B50820EE66E070EE66E020EE66EE66A7D
:10072000020EE66E010EE66E39DF0B6E060EE15E1E
:100730000B501200D9CFE6FFE1CFD9FF020EE12620
:10074000DE6ADD6ADECF0BF0DDCF0CF00D6A0CBE89
:100750000D68A00E0B1805E1860E0C1802E1010EC3
:100760000D1805E0DF2A010EEDE3DB2AEBD7020EC0
:10077000E15C02E2E16AE552E16EE552E7CFD9FFC2
:100780001200D9CFE6FFE1CFD9FF020EE126DE6AE3
:10079000DD6ADECF0BF0DDCF0CF00D6A0CBE0D680C
:1007A000A00E0B1805E1860E0C1802E1010E0D18C3
:1007B00005E0DF2A010EEDE3DB2AEBD7020EE15C58
:1007C00002E2E16AE552E16EE552E7CFD9FF12009D
:1007D000D9CFE6FFE1CFD9FF94948284FD0EDBCF21
:1007E000E9FFFE0EDBCFEAFFEF6AE552E7CFD9FF64
:1007F000120082941200D9CFE6FFE1CFD9FF020E9A
:10080000E126DE6ADD6AFD0EDBCFE9FFFE0EDBCFFF
:10081000EAFFEF50010A46E0010A01E0DAD034ECC9
:1008200007F004C00BF005C00CF006C00DF007C0C7
:100830000EF0FD0EDBCFE9FFFE0EDBCFEAFF030E6D
:10084000E926000EEA2204C0EEFF0CC0EEFF0DC048
:10085000EEFF0EC0EEFFFD0EDBCFE9FFFE0EDBCF9D
:10086000EAFF010EEB6A020EEB6AFD0EDBCFE9FF39
:10087000FE0EDBCFEAFF010EEF6EFD0EDBCFE9FFD0
:10088000FE0EDBCFEAFFEE52EE50EFCFEAFFE96E4D
:10089000C40EE926010EEA22EF50E66EC0EC06F027
:1008A000E5529ED0FD0EDBCFE9FFFE0EDBCFEAFF67
:1008B000030EE926000EEA22EECF0FF0EECF10F085
:1008C000EECF11F0EFCF12F00FC0E6FF10C0E6FF41
:1008D00011C0E6FF12C0E6FF34EC07F0E552E7CFA7
:1008E00012F0E552E7CF11F0E552E7CF10F0E552F4
:1008F000E7CF0FF000010F50045C0B6E105005584D
:100900000C6E115006580D6E125007580E6EE80E00
:100910000B5C010E0C58000E0D58000E0E5850E3E3
:1009200034EC07F004C00BF005C00CF006C00DF06D
:1009300007C00EF0FD0EDBCFE9FFFE0EDBCFEAFFB6
:10094000030EE926000EEA2204C0EEFF0CC0EEFF03
:100950000DC0EEFF0EC0EEFFFD0EDBCFE9FFFE0E79
:10096000DBCFEAFFEE52EE2A000EEF22FD0EDBCFC8
:10097000E9FFFE0EDBCFEAFFEE52EE50EFCFEAFFCB
:10098000E96EC40EE926010EEA22EF50E66EC0ECD5
:1009900006F0E552FD0EDBCFE9FFFE0EDBCFEAFFEE
:1009A000EE52100EEE180CE1ED500AE1FD0EDBCF19
:1009B000E9FFFE0EDBCFEAFF010EEB6A020EEB6AE7
:1009C000FD0EDBCFE9FFFE0EDBCFEAFF010EEF6E7F
:1009D00007D0FD0EDBCFE9FFFE0EDBCFEAFFEF6AAB
:1009E000020EE15C02E2E16AE552E16EE552E7CF18
:0409F000D9FF120019
:0C09F400D9CFE6FFE1CFD9FFFD0EDBCF2D
:100A0000E9FFFE0EDBCFEAFFEF6AFD0EDBCFE9FF69
:100A1000FE0EDBCFEAFFEE52EE6AEE6AEE6AEE6A97
:100A200072EC06F0E552E7CFD9FF1200D9CFE6FF0E
:100A3000E1CFD9FFFD0EDBCFE9FFFE0EDBCFEAFFF2
:100A4000EF50020A01E178D0030A17E0010A01E041
:100A5000D1D0FD0EDBCFE9FFFE0EDBCFEAFF010EAA
:100A6000EF6EFD0EDBCFE9FFFE0EDBCFEAFFEE52AD
:100A7000EE6AEE6AEE6AEE6ABDD0FD0EDBCFE9FFEC
:100A8000FE0EDBCFEAFFEE52EECF0FF0EECF10F00E
:100A9000EECF11F0EFCF12F00FC0E6FF10C0E6FF6F
:100AA00011C0E6FF12C0E6FF34EC07F0E552E7CFD5
:100AB00012F0E552E7CF11F0E552E7CF10F0E55222
:100AC000E7CF0FF000010F50045C0B6E105005587B
:100AD0000C6E115006580D6E125007580E6EE80E2F
:100AE0000B5C010E0C58000E0D58000E0E5801E262
:100AF00081D034EC07F004C00BF005C00CF006C048
:100B00000DF007C00EF0FD0EDBCFE9FFFE0EDBCFD0
:100B1000EAFFEE5204C0EEFF0CC0EEFF0DC0EEFF88
:100B20000EC0EEFF76EC06F0FD0EDBCFE9FFFE0E09
:100B3000DBCFEAFF020E5DD0FD0EDBCFE9FFFE0E3C
:100B4000DBCFEAFFEE52EECF0FF0EECF10F0EECF9C
:100B500011F0EFCF12F00FC0E6FF10C0E6FF11C09A
:100B6000E6FF12C0E6FF34EC07F0E552E7CF12F0E3
:100B7000E552E7CF11F0E552E7CF10F0E552E7CFAD
:100B80000FF000010F50045C0B6E105005580C6EF6
:100B9000115006580D6E125007580E6EE80E0B5C81
:100BA000010E0C58000E0D58000E0E5823E334ECC5
:100BB00007F004C00BF005C00CF006C00DF007C034
:100BC0000EF0FD0EDBCFE9FFFE0EDBCFEAFFEE52AB
:100BD00004C0EEFF0CC0EEFF0DC0EEFF0EC0EEFF36
:100BE00074EC06F0FD0EDBCFE9FFFE0EDBCFEAFF73
:0C0BF000010EEF6EE552E7CFD9FF1200B6
:040BFC00260EF66E5D
:100C0000020EF76E000EF86E01010900F550DA6F62
:100C10000900F550DB6F03E1DA6701D03DD0090030
:100C2000F550D56F0900F550D66F0900F550D76F14
:100C300009000900F550E96E0900F550EA6E090057
:100C400009000900F550D86F0900F550D96F090067
:100C50000900F6CFDCF1F7CFDDF1F8CFDEF1D5C139
:100C6000F6FFD6C1F7FFD7C1F8FF0101D85302E163
:100C7000D95307E00900F550EE6ED807F8E2D9071E
:100C8000F9D7DCC1F6FFDDC1F7FFDEC1F8FF0101D6
:0A0C9000DA07000EDB5BBFD712008D
:060C9A00D9CFE6FFE1CF17
:100CA000D9FF020EE126DE6ADD6ADE6ADD6ADECF8A
:100CB0000BF0DDCF0CF0D8900C5004E6880E0B5CE6
:100CC000130E0C5805E2DF2A010EF1E3DB2AEFD701
:100CD000020EE15C02E2E16AE552E16EE552E7CF25
:100CE000D9FF1200939012008180120081901200AF
:100CF000D9CFE6FFE1CFD9FF020EE1266DEC03F07C
:100D000027EC07F0DECF0BF0DDCF0CF00D6A0CBE48
:100D10000D68A00E0B1805E1860E0C1802E1010EFD
:100D20000D1805E0DF2A010EEDE3DB2AEBD7020EFA
:100D3000E15C02E2E16AE552E16EE552E7CFD9FFFC
:020D400012009F
:0E0D4200D9CFE6FFDACFE6FFE1CFD9FFE2CF4F
:100D5000DAFFE652F20E0101ED17ABAC03D0ED91D4
:100D6000ABB0ED81ABB4ED85ABB2ED87AE50DF6ECD
:100D7000DF50E552E552E5CFDAFFE7CFD9FF1200A9
:100D8000D9CFE6FFDACFE6FFE1CFD9FFE2CFDAFF36
:100D9000E652C950DF6E9E96C69EFD0EDB50C96EB0
:100DA000C6AE02D0FF0E03D09EA6FED7000EE552BF
:0C0DB000E552E5CFDAFFE7CFD9FF1200D3
:040DBC00D9CFE6FFA6
:100DC000DACFE6FFE1CFD9FFE2CFDAFFFD0EDB504D
:100DD0007F0BD56ED76AD66AF294FD0EDBAE02D0D9
:100DE000F28A01D0F29AD58EE552E5CFDAFFE7CF4D
:040DF000D9FF120015
:0C0DF400D9CFE6FFDACFE6FFE1CFD9FF50
:100E0000E2CFDAFFACAC04D0AC900101EDB3AC8022
:100E1000FD0EDB50AD6EE552E5CFDAFFE7CFD9FF2F
:020E20001200BE
:0E0E2200D9CFE6FFE1CFD9FFE6529EAAFED758
:100E3000A1EC06F0DF6EACA2FED7DFCFE6FFFAEC46
:0E0E400006F0E552E552E552E7CFD9FF120069
:020E4E000101A0
:100E5000DF6BE06BE16BE26BF28ED20EE66EDEECE6
:100E600006F0E552F2941200DFC104F0E0C105F093
:0A0E7000E1C106F0E2C107F0120034
:060E7A00000EF36E00EE15
:100E800000F0060E01D81200EA6002D0EE6AFCD72C
:0A0E9000F350E9601200EE6AFCD78F
:060E9A0015EE00F025EE4C
:100EA00000F0F86A0A9CFEEC05F003EC00F078EC28
:060EB00006F0FBD7120062
:0A0EB600EE82DCD6B2767EC2FEF2B8
:070EC000FA3E6C9E7C78EE07
:080EC700000000000000000023
:020000040030CA
:0100010038C6
:01000200FEFF
:01000300FEFE
:010006003BBE
:00000001FF
